{
  "_format": "hh-sol-artifact-1",
  "contractName": "MyEpicNFT",
  "sourceName": "contracts/MyEpicNFT.sol",
  "abi": [
    {
      "inputs": [],
      "stateMutability": "nonpayable",
      "type": "constructor"
    },
    {
      "anonymous": false,
      "inputs": [
        {
          "indexed": true,
          "internalType": "address",
          "name": "owner",
          "type": "address"
        },
        {
          "indexed": true,
          "internalType": "address",
          "name": "approved",
          "type": "address"
        },
        {
          "indexed": true,
          "internalType": "uint256",
          "name": "tokenId",
          "type": "uint256"
        }
      ],
      "name": "Approval",
      "type": "event"
    },
    {
      "anonymous": false,
      "inputs": [
        {
          "indexed": true,
          "internalType": "address",
          "name": "owner",
          "type": "address"
        },
        {
          "indexed": true,
          "internalType": "address",
          "name": "operator",
          "type": "address"
        },
        {
          "indexed": false,
          "internalType": "bool",
          "name": "approved",
          "type": "bool"
        }
      ],
      "name": "ApprovalForAll",
      "type": "event"
    },
    {
      "anonymous": false,
      "inputs": [
        {
          "indexed": false,
          "internalType": "address",
          "name": "sender",
          "type": "address"
        },
        {
          "indexed": false,
          "internalType": "uint256",
          "name": "tokenId",
          "type": "uint256"
        }
      ],
      "name": "NewEpicNFTMinted",
      "type": "event"
    },
    {
      "anonymous": false,
      "inputs": [
        {
          "indexed": true,
          "internalType": "address",
          "name": "from",
          "type": "address"
        },
        {
          "indexed": true,
          "internalType": "address",
          "name": "to",
          "type": "address"
        },
        {
          "indexed": true,
          "internalType": "uint256",
          "name": "tokenId",
          "type": "uint256"
        }
      ],
      "name": "Transfer",
      "type": "event"
    },
    {
      "inputs": [
        {
          "internalType": "address",
          "name": "to",
          "type": "address"
        },
        {
          "internalType": "uint256",
          "name": "tokenId",
          "type": "uint256"
        }
      ],
      "name": "approve",
      "outputs": [],
      "stateMutability": "nonpayable",
      "type": "function"
    },
    {
      "inputs": [
        {
          "internalType": "address",
          "name": "owner",
          "type": "address"
        }
      ],
      "name": "balanceOf",
      "outputs": [
        {
          "internalType": "uint256",
          "name": "",
          "type": "uint256"
        }
      ],
      "stateMutability": "view",
      "type": "function"
    },
    {
      "inputs": [
        {
          "internalType": "uint256",
          "name": "tokenId",
          "type": "uint256"
        }
      ],
      "name": "getApproved",
      "outputs": [
        {
          "internalType": "address",
          "name": "",
          "type": "address"
        }
      ],
      "stateMutability": "view",
      "type": "function"
    },
    {
      "inputs": [],
      "name": "getTotalNFTsMintedSoFar",
      "outputs": [
        {
          "internalType": "uint256",
          "name": "",
          "type": "uint256"
        }
      ],
      "stateMutability": "view",
      "type": "function"
    },
    {
      "inputs": [
        {
          "internalType": "address",
          "name": "owner",
          "type": "address"
        },
        {
          "internalType": "address",
          "name": "operator",
          "type": "address"
        }
      ],
      "name": "isApprovedForAll",
      "outputs": [
        {
          "internalType": "bool",
          "name": "",
          "type": "bool"
        }
      ],
      "stateMutability": "view",
      "type": "function"
    },
    {
      "inputs": [],
      "name": "makeAnEpicNFT",
      "outputs": [],
      "stateMutability": "nonpayable",
      "type": "function"
    },
    {
      "inputs": [],
      "name": "name",
      "outputs": [
        {
          "internalType": "string",
          "name": "",
          "type": "string"
        }
      ],
      "stateMutability": "view",
      "type": "function"
    },
    {
      "inputs": [
        {
          "internalType": "uint256",
          "name": "tokenId",
          "type": "uint256"
        }
      ],
      "name": "ownerOf",
      "outputs": [
        {
          "internalType": "address",
          "name": "",
          "type": "address"
        }
      ],
      "stateMutability": "view",
      "type": "function"
    },
    {
      "inputs": [
        {
          "internalType": "uint256",
          "name": "tokenId",
          "type": "uint256"
        }
      ],
      "name": "pickRandomColor",
      "outputs": [
        {
          "internalType": "string",
          "name": "",
          "type": "string"
        }
      ],
      "stateMutability": "view",
      "type": "function"
    },
    {
      "inputs": [
        {
          "internalType": "uint256",
          "name": "tokenId",
          "type": "uint256"
        }
      ],
      "name": "pickRandomFirstWord",
      "outputs": [
        {
          "internalType": "string",
          "name": "",
          "type": "string"
        }
      ],
      "stateMutability": "view",
      "type": "function"
    },
    {
      "inputs": [
        {
          "internalType": "uint256",
          "name": "tokenId",
          "type": "uint256"
        }
      ],
      "name": "pickRandomSecondWord",
      "outputs": [
        {
          "internalType": "string",
          "name": "",
          "type": "string"
        }
      ],
      "stateMutability": "view",
      "type": "function"
    },
    {
      "inputs": [
        {
          "internalType": "uint256",
          "name": "tokenId",
          "type": "uint256"
        }
      ],
      "name": "pickRandomThirdWord",
      "outputs": [
        {
          "internalType": "string",
          "name": "",
          "type": "string"
        }
      ],
      "stateMutability": "view",
      "type": "function"
    },
    {
      "inputs": [
        {
          "internalType": "address",
          "name": "from",
          "type": "address"
        },
        {
          "internalType": "address",
          "name": "to",
          "type": "address"
        },
        {
          "internalType": "uint256",
          "name": "tokenId",
          "type": "uint256"
        }
      ],
      "name": "safeTransferFrom",
      "outputs": [],
      "stateMutability": "nonpayable",
      "type": "function"
    },
    {
      "inputs": [
        {
          "internalType": "address",
          "name": "from",
          "type": "address"
        },
        {
          "internalType": "address",
          "name": "to",
          "type": "address"
        },
        {
          "internalType": "uint256",
          "name": "tokenId",
          "type": "uint256"
        },
        {
          "internalType": "bytes",
          "name": "_data",
          "type": "bytes"
        }
      ],
      "name": "safeTransferFrom",
      "outputs": [],
      "stateMutability": "nonpayable",
      "type": "function"
    },
    {
      "inputs": [
        {
          "internalType": "address",
          "name": "operator",
          "type": "address"
        },
        {
          "internalType": "bool",
          "name": "approved",
          "type": "bool"
        }
      ],
      "name": "setApprovalForAll",
      "outputs": [],
      "stateMutability": "nonpayable",
      "type": "function"
    },
    {
      "inputs": [
        {
          "internalType": "bytes4",
          "name": "interfaceId",
          "type": "bytes4"
        }
      ],
      "name": "supportsInterface",
      "outputs": [
        {
          "internalType": "bool",
          "name": "",
          "type": "bool"
        }
      ],
      "stateMutability": "view",
      "type": "function"
    },
    {
      "inputs": [],
      "name": "symbol",
      "outputs": [
        {
          "internalType": "string",
          "name": "",
          "type": "string"
        }
      ],
      "stateMutability": "view",
      "type": "function"
    },
    {
      "inputs": [
        {
          "internalType": "uint256",
          "name": "tokenId",
          "type": "uint256"
        }
      ],
      "name": "tokenURI",
      "outputs": [
        {
          "internalType": "string",
          "name": "",
          "type": "string"
        }
      ],
      "stateMutability": "view",
      "type": "function"
    },
    {
      "inputs": [
        {
          "internalType": "address",
          "name": "from",
          "type": "address"
        },
        {
          "internalType": "address",
          "name": "to",
          "type": "address"
        },
        {
          "internalType": "uint256",
          "name": "tokenId",
          "type": "uint256"
        }
      ],
      "name": "transferFrom",
      "outputs": [],
      "stateMutability": "nonpayable",
      "type": "function"
    }
  ],
  "bytecode": "0x608060405260405180610100016040528060d381526020016200474060d3913960089080519060200190620000369291906200082c565b50604051806080016040528060568152602001620048136056913960099080519060200190620000689291906200082c565b506040518060c001604052806040518060400160405280600781526020017f4b6869636864690000000000000000000000000000000000000000000000000081525081526020016040518060400160405280600581526020017f506173746100000000000000000000000000000000000000000000000000000081525081526020016040518060400160405280600481526020017f526f74690000000000000000000000000000000000000000000000000000000081525081526020016040518060400160405280600781526020017f4272696e6a616c0000000000000000000000000000000000000000000000000081525081526020016040518060400160405280600681526020017f5069636b6c65000000000000000000000000000000000000000000000000000081525081526020016040518060400160405280600681526020017f5468656b75610000000000000000000000000000000000000000000000000000815250815250600a906006620001e6929190620008bd565b506040518060c001604052806040518060400160405280600581526020017f536869727400000000000000000000000000000000000000000000000000000081525081526020016040518060400160405280600581526020017f4a65616e7300000000000000000000000000000000000000000000000000000081525081526020016040518060400160405280600681526020017f426c617a6572000000000000000000000000000000000000000000000000000081525081526020016040518060400160405280600581526020017f536f636b7300000000000000000000000000000000000000000000000000000081525081526020016040518060400160405280600581526020017f53686f657300000000000000000000000000000000000000000000000000000081525081526020016040518060400160405280600381526020017f4361700000000000000000000000000000000000000000000000000000000000815250815250600b90600662000364929190620008bd565b506040518060c001604052806040518060400160405280600681526020017f4d69636b6579000000000000000000000000000000000000000000000000000081525081526020016040518060400160405280600781526020017f50696b616368750000000000000000000000000000000000000000000000000081525081526020016040518060400160405280600681526020017f506f70657965000000000000000000000000000000000000000000000000000081525081526020016040518060400160405280600781526020017f53636f6f6269650000000000000000000000000000000000000000000000000081525081526020016040518060400160405280600681526020017f4d696e6e6965000000000000000000000000000000000000000000000000000081525081526020016040518060400160405280600681526020017f57696e6e69650000000000000000000000000000000000000000000000000000815250815250600c906006620004e2929190620008bd565b506040518060c001604052806040518060400160405280600381526020017f726564000000000000000000000000000000000000000000000000000000000081525081526020016040518060400160405280600781526020017f233038433241380000000000000000000000000000000000000000000000000081525081526020016040518060400160405280600581526020017f626c61636b00000000000000000000000000000000000000000000000000000081525081526020016040518060400160405280600681526020017f79656c6c6f77000000000000000000000000000000000000000000000000000081525081526020016040518060400160405280600481526020017f626c75650000000000000000000000000000000000000000000000000000000081525081526020016040518060400160405280600581526020017f677265656e000000000000000000000000000000000000000000000000000000815250815250600d90600662000660929190620008bd565b503480156200066e57600080fd5b506040518060400160405280600981526020017f5371756172654e465400000000000000000000000000000000000000000000008152506040518060400160405280600681526020017f53515541524500000000000000000000000000000000000000000000000000008152508160009080519060200190620006f39291906200082c565b5080600190805190602001906200070c9291906200082c565b5050506200075a6040518060400160405280601e81526020017f54686973206973206d79204e465420636f6e74726163742e20576f61682100008152506200076060201b620014431760201c565b62000ade565b6200080081604051602401620007779190620009f2565b6040516020818303038152906040527f41304fac000000000000000000000000000000000000000000000000000000007bffffffffffffffffffffffffffffffffffffffffffffffffffffffff19166020820180517bffffffffffffffffffffffffffffffffffffffffffffffffffffffff83818316178352505050506200080360201b60201c565b50565b60008151905060006a636f6e736f6c652e6c6f679050602083016000808483855afa5050505050565b8280546200083a9062000a68565b90600052602060002090601f0160209004810192826200085e5760008555620008aa565b82601f106200087957805160ff1916838001178555620008aa565b82800160010185558215620008aa579182015b82811115620008a95782518255916020019190600101906200088c565b5b509050620008b9919062000924565b5090565b82805482825590600052602060002090810192821562000911579160200282015b8281111562000910578251829080519060200190620008ff9291906200082c565b5091602001919060010190620008de565b5b50905062000920919062000943565b5090565b5b808211156200093f57600081600090555060010162000925565b5090565b5b808211156200096757600081816200095d91906200096b565b5060010162000944565b5090565b508054620009799062000a68565b6000825580601f106200098d5750620009ae565b601f016020900490600052602060002090810190620009ad919062000924565b5b50565b6000620009be8262000a16565b620009ca818562000a21565b9350620009dc81856020860162000a32565b620009e78162000acd565b840191505092915050565b6000602082019050818103600083015262000a0e8184620009b1565b905092915050565b600081519050919050565b600082825260208201905092915050565b60005b8381101562000a5257808201518184015260208101905062000a35565b8381111562000a62576000848401525b50505050565b6000600282049050600182168062000a8157607f821691505b6020821081141562000a985762000a9762000a9e565b5b50919050565b7f4e487b7100000000000000000000000000000000000000000000000000000000600052602260045260246000fd5b6000601f19601f8301169050919050565b613c528062000aee6000396000f3fe608060405234801561001057600080fd5b50600436106101215760003560e01c80636352211e116100ad578063b88d4fde11610071578063b88d4fde14610340578063c575757a1461035c578063c87b56dd1461038c578063de9d132f146103bc578063e985e9c5146103c657610121565b80636352211e1461027657806370a08231146102a657806395d89b41146102d6578063a22cb465146102f4578063b187301f1461031057610121565b8063095ea7b3116100f4578063095ea7b3146101c257806323b872dd146101de5780632de38d68146101fa57806342842e0e1461022a578063514dc8c61461024657610121565b806301ffc9a714610126578063060475901461015657806306fdde0314610174578063081812fc14610192575b600080fd5b610140600480360381019061013b9190612772565b6103f6565b60405161014d9190613498565b60405180910390f35b61015e6104d8565b60405161016b9190613743565b60405180910390f35b61017c610531565b60405161018991906134b3565b60405180910390f35b6101ac60048036038101906101a791906127c4565b6105c3565b6040516101b99190613408565b60405180910390f35b6101dc60048036038101906101d79190612736565b610648565b005b6101f860048036038101906101f39190612630565b610760565b005b610214600480360381019061020f91906127c4565b6107c0565b60405161022191906134b3565b60405180910390f35b610244600480360381019061023f9190612630565b6108de565b005b610260600480360381019061025b91906127c4565b6108fe565b60405161026d91906134b3565b60405180910390f35b610290600480360381019061028b91906127c4565b610a1c565b60405161029d9190613408565b60405180910390f35b6102c060048036038101906102bb91906125cb565b610ace565b6040516102cd9190613743565b60405180910390f35b6102de610b86565b6040516102eb91906134b3565b60405180910390f35b61030e600480360381019061030991906126fa565b610c18565b005b61032a600480360381019061032591906127c4565b610d99565b60405161033791906134b3565b60405180910390f35b61035a6004803603810190610355919061267f565b610eb7565b005b610376600480360381019061037191906127c4565b610f19565b60405161038391906134b3565b60405180910390f35b6103a660048036038101906103a191906127c4565b611037565b6040516103b391906134b3565b60405180910390f35b6103c4611189565b005b6103e060048036038101906103db91906125f4565b6113af565b6040516103ed9190613498565b60405180910390f35b60007f80ac58cd000000000000000000000000000000000000000000000000000000007bffffffffffffffffffffffffffffffffffffffffffffffffffffffff1916827bffffffffffffffffffffffffffffffffffffffffffffffffffffffff191614806104c157507f5b5e139f000000000000000000000000000000000000000000000000000000007bffffffffffffffffffffffffffffffffffffffffffffffffffffffff1916827bffffffffffffffffffffffffffffffffffffffffffffffffffffffff1916145b806104d157506104d0826114dc565b5b9050919050565b60006105226040518060400160405280601681526020017f4e756d626572206f66204e465473206d696e7465643a0000000000000000000081525061051d6007611546565b611554565b61052c6007611546565b905090565b606060008054610540906139e2565b80601f016020809104026020016040519081016040528092919081815260200182805461056c906139e2565b80156105b95780601f1061058e576101008083540402835291602001916105b9565b820191906000526020600020905b81548152906001019060200180831161059c57829003601f168201915b5050505050905090565b60006105ce826115f0565b61060d576040517f08c379a0000000000000000000000000000000000000000000000000000000008152600401610604906136a3565b60405180910390fd5b6004600083815260200190815260200160002060009054906101000a900473ffffffffffffffffffffffffffffffffffffffff169050919050565b600061065382610a1c565b90508073ffffffffffffffffffffffffffffffffffffffff168373ffffffffffffffffffffffffffffffffffffffff1614156106c4576040517f08c379a00000000000000000000000000000000000000000000000000000000081526004016106bb90613703565b60405180910390fd5b8073ffffffffffffffffffffffffffffffffffffffff166106e361165c565b73ffffffffffffffffffffffffffffffffffffffff16148061071257506107118161070c61165c565b6113af565b5b610751576040517f08c379a0000000000000000000000000000000000000000000000000000000008152600401610748906135e3565b60405180910390fd5b61075b8383611664565b505050565b61077161076b61165c565b8261171d565b6107b0576040517f08c379a00000000000000000000000000000000000000000000000000000000081526004016107a790613723565b60405180910390fd5b6107bb8383836117fb565b505050565b606060006107f46107d084611a57565b6040516020016107e091906133a2565b604051602081830303815290604052611c04565b9050600a80549050816108079190613a5d565b9050600a8181548110610843577f4e487b7100000000000000000000000000000000000000000000000000000000600052603260045260246000fd5b906000526020600020018054610858906139e2565b80601f0160208091040260200160405190810160405280929190818152602001828054610884906139e2565b80156108d15780601f106108a6576101008083540402835291602001916108d1565b820191906000526020600020905b8154815290600101906020018083116108b457829003601f168201915b5050505050915050919050565b6108f983838360405180602001604052806000815250610eb7565b505050565b6060600061093261090e84611a57565b60405160200161091e91906133e6565b604051602081830303815290604052611c04565b9050600d80549050816109459190613a5d565b9050600d8181548110610981577f4e487b7100000000000000000000000000000000000000000000000000000000600052603260045260246000fd5b906000526020600020018054610996906139e2565b80601f01602080910402602001604051908101604052809291908181526020018280546109c2906139e2565b8015610a0f5780601f106109e457610100808354040283529160200191610a0f565b820191906000526020600020905b8154815290600101906020018083116109f257829003601f168201915b5050505050915050919050565b6000806002600084815260200190815260200160002060009054906101000a900473ffffffffffffffffffffffffffffffffffffffff169050600073ffffffffffffffffffffffffffffffffffffffff168173ffffffffffffffffffffffffffffffffffffffff161415610ac5576040517f08c379a0000000000000000000000000000000000000000000000000000000008152600401610abc90613623565b60405180910390fd5b80915050919050565b60008073ffffffffffffffffffffffffffffffffffffffff168273ffffffffffffffffffffffffffffffffffffffff161415610b3f576040517f08c379a0000000000000000000000000000000000000000000000000000000008152600401610b3690613603565b60405180910390fd5b600360008373ffffffffffffffffffffffffffffffffffffffff1673ffffffffffffffffffffffffffffffffffffffff168152602001908152602001600020549050919050565b606060018054610b95906139e2565b80601f0160208091040260200160405190810160405280929190818152602001828054610bc1906139e2565b8015610c0e5780601f10610be357610100808354040283529160200191610c0e565b820191906000526020600020905b815481529060010190602001808311610bf157829003601f168201915b5050505050905090565b610c2061165c565b73ffffffffffffffffffffffffffffffffffffffff168273ffffffffffffffffffffffffffffffffffffffff161415610c8e576040517f08c379a0000000000000000000000000000000000000000000000000000000008152600401610c85906135a3565b60405180910390fd5b8060056000610c9b61165c565b73ffffffffffffffffffffffffffffffffffffffff1673ffffffffffffffffffffffffffffffffffffffff16815260200190815260200160002060008473ffffffffffffffffffffffffffffffffffffffff1673ffffffffffffffffffffffffffffffffffffffff16815260200190815260200160002060006101000a81548160ff0219169083151502179055508173ffffffffffffffffffffffffffffffffffffffff16610d4861165c565b73ffffffffffffffffffffffffffffffffffffffff167f17307eab39ab6107e8899845ad3d59bd9653f200f220920489ca2b5937696c3183604051610d8d9190613498565b60405180910390a35050565b60606000610dcd610da984611a57565b604051602001610db9919061333b565b604051602081830303815290604052611c04565b9050600b8054905081610de09190613a5d565b9050600b8181548110610e1c577f4e487b7100000000000000000000000000000000000000000000000000000000600052603260045260246000fd5b906000526020600020018054610e31906139e2565b80601f0160208091040260200160405190810160405280929190818152602001828054610e5d906139e2565b8015610eaa5780601f10610e7f57610100808354040283529160200191610eaa565b820191906000526020600020905b815481529060010190602001808311610e8d57829003601f168201915b5050505050915050919050565b610ec8610ec261165c565b8361171d565b610f07576040517f08c379a0000000000000000000000000000000000000000000000000000000008152600401610efe90613723565b60405180910390fd5b610f1384848484611c37565b50505050565b60606000610f4d610f2984611a57565b604051602001610f399190613319565b604051602081830303815290604052611c04565b9050600c8054905081610f609190613a5d565b9050600c8181548110610f9c577f4e487b7100000000000000000000000000000000000000000000000000000000600052603260045260246000fd5b906000526020600020018054610fb1906139e2565b80601f0160208091040260200160405190810160405280929190818152602001828054610fdd906139e2565b801561102a5780601f10610fff5761010080835404028352916020019161102a565b820191906000526020600020905b81548152906001019060200180831161100d57829003601f168201915b5050505050915050919050565b6060611042826115f0565b611081576040517f08c379a000000000000000000000000000000000000000000000000000000000815260040161107890613683565b60405180910390fd5b60006006600084815260200190815260200160002080546110a1906139e2565b80601f01602080910402602001604051908101604052809291908181526020018280546110cd906139e2565b801561111a5780601f106110ef5761010080835404028352916020019161111a565b820191906000526020600020905b8154815290600101906020018083116110fd57829003601f168201915b50505050509050600061112b611c93565b9050600081511415611141578192505050611184565b60008251111561117657808260405160200161115e929190613259565b60405160208183030381529060405292505050611184565b61117f84611caa565b925050505b919050565b60006111956007611546565b9050603381106111a457600080fd5b60006111af826107c0565b905060006111bc83610d99565b905060006111c984610f19565b905060008383836040516020016111e29392919061327d565b604051602081830303815290604052905060006111fe866108fe565b9050600060088260098560405160200161121b94939291906132ae565b604051602081830303815290604052905060006112608461123b84611d51565b60405160200161124c92919061335d565b604051602081830303815290604052611d51565b905060008160405160200161127591906133c4565b60405160208183030381529060405290506112c46040518060400160405280601581526020017f0a2d2d2d2d2d2d2d2d2d2d2d2d2d2d2d2d2d2d2d2d0000000000000000000000815250611443565b6112ec816040516020016112d891906132f7565b604051602081830303815290604052611443565b61132a6040518060400160405280601581526020017f2d2d2d2d2d2d2d2d2d2d2d2d2d2d2d2d2d2d2d2d0a0000000000000000000000815250611443565b611334338a611f0f565b61133e8982611f2d565b6113486007611fa1565b61136b604051806060016040528060258152602001613bb8602591398a33611fb7565b7febb98688741ffa4c7589bf325de30cf7becb63de567842e1ccdb6cb949fdc82c338a60405161139c92919061346f565b60405180910390a1505050505050505050565b6000600560008473ffffffffffffffffffffffffffffffffffffffff1673ffffffffffffffffffffffffffffffffffffffff16815260200190815260200160002060008373ffffffffffffffffffffffffffffffffffffffff1673ffffffffffffffffffffffffffffffffffffffff16815260200190815260200160002060009054906101000a900460ff16905092915050565b6114d98160405160240161145791906134b3565b6040516020818303038152906040527f41304fac000000000000000000000000000000000000000000000000000000007bffffffffffffffffffffffffffffffffffffffffffffffffffffffff19166020820180517bffffffffffffffffffffffffffffffffffffffffffffffffffffffff8381831617835250505050612056565b50565b60007f01ffc9a7000000000000000000000000000000000000000000000000000000007bffffffffffffffffffffffffffffffffffffffffffffffffffffffff1916827bffffffffffffffffffffffffffffffffffffffffffffffffffffffff1916149050919050565b600081600001549050919050565b6115ec828260405160240161156a9291906134d5565b6040516020818303038152906040527f9710a9d0000000000000000000000000000000000000000000000000000000007bffffffffffffffffffffffffffffffffffffffffffffffffffffffff19166020820180517bffffffffffffffffffffffffffffffffffffffffffffffffffffffff8381831617835250505050612056565b5050565b60008073ffffffffffffffffffffffffffffffffffffffff166002600084815260200190815260200160002060009054906101000a900473ffffffffffffffffffffffffffffffffffffffff1673ffffffffffffffffffffffffffffffffffffffff1614159050919050565b600033905090565b816004600083815260200190815260200160002060006101000a81548173ffffffffffffffffffffffffffffffffffffffff021916908373ffffffffffffffffffffffffffffffffffffffff160217905550808273ffffffffffffffffffffffffffffffffffffffff166116d783610a1c565b73ffffffffffffffffffffffffffffffffffffffff167f8c5be1e5ebec7d5bd14f71427d1e84f3dd0314c0f7b2291e5b200ac8c7c3b92560405160405180910390a45050565b6000611728826115f0565b611767576040517f08c379a000000000000000000000000000000000000000000000000000000000815260040161175e906135c3565b60405180910390fd5b600061177283610a1c565b90508073ffffffffffffffffffffffffffffffffffffffff168473ffffffffffffffffffffffffffffffffffffffff1614806117e157508373ffffffffffffffffffffffffffffffffffffffff166117c9846105c3565b73ffffffffffffffffffffffffffffffffffffffff16145b806117f257506117f181856113af565b5b91505092915050565b8273ffffffffffffffffffffffffffffffffffffffff1661181b82610a1c565b73ffffffffffffffffffffffffffffffffffffffff1614611871576040517f08c379a0000000000000000000000000000000000000000000000000000000008152600401611868906136c3565b60405180910390fd5b600073ffffffffffffffffffffffffffffffffffffffff168273ffffffffffffffffffffffffffffffffffffffff1614156118e1576040517f08c379a00000000000000000000000000000000000000000000000000000000081526004016118d890613583565b60405180910390fd5b6118ec83838361207f565b6118f7600082611664565b6001600360008573ffffffffffffffffffffffffffffffffffffffff1673ffffffffffffffffffffffffffffffffffffffff168152602001908152602001600020600082825461194791906138f8565b925050819055506001600360008473ffffffffffffffffffffffffffffffffffffffff1673ffffffffffffffffffffffffffffffffffffffff168152602001908152602001600020600082825461199e9190613817565b92505081905550816002600083815260200190815260200160002060006101000a81548173ffffffffffffffffffffffffffffffffffffffff021916908373ffffffffffffffffffffffffffffffffffffffff160217905550808273ffffffffffffffffffffffffffffffffffffffff168473ffffffffffffffffffffffffffffffffffffffff167fddf252ad1be2c89b69c2b068fc378daa952ba7f163c4a11628f55a4df523b3ef60405160405180910390a4505050565b60606000821415611a9f576040518060400160405280600181526020017f30000000000000000000000000000000000000000000000000000000000000008152509050611bff565b600082905060005b60008214611ad1578080611aba90613a14565b915050600a82611aca919061386d565b9150611aa7565b60008167ffffffffffffffff811115611b13577f4e487b7100000000000000000000000000000000000000000000000000000000600052604160045260246000fd5b6040519080825280601f01601f191660200182016040528015611b455781602001600182028036833780820191505090505b5090505b60008514611bf857600182611b5e91906138f8565b9150600a85611b6d9190613a5d565b6030611b799190613817565b60f81b818381518110611bb5577f4e487b7100000000000000000000000000000000000000000000000000000000600052603260045260246000fd5b60200101907effffffffffffffffffffffffffffffffffffffffffffffffffffffffffffff1916908160001a905350600a85611bf1919061386d565b9450611b49565b8093505050505b919050565b600081604051602001611c179190613242565b6040516020818303038152906040528051906020012060001c9050919050565b611c428484846117fb565b611c4e84848484612084565b611c8d576040517f08c379a0000000000000000000000000000000000000000000000000000000008152600401611c8490613543565b60405180910390fd5b50505050565b606060405180602001604052806000815250905090565b6060611cb5826115f0565b611cf4576040517f08c379a0000000000000000000000000000000000000000000000000000000008152600401611ceb906136e3565b60405180910390fd5b6000611cfe611c93565b90506000815111611d1e5760405180602001604052806000815250611d49565b80611d2884611a57565b604051602001611d39929190613259565b6040516020818303038152906040525b915050919050565b60606000825190506000811415611d7a5760405180602001604052806000815250915050611f0a565b60006003600283611d8b9190613817565b611d95919061386d565b6004611da1919061389e565b90506000602082611db29190613817565b67ffffffffffffffff811115611df1577f4e487b7100000000000000000000000000000000000000000000000000000000600052604160045260246000fd5b6040519080825280601f01601f191660200182016040528015611e235781602001600182028036833780820191505090505b5090506000604051806060016040528060408152602001613bdd604091399050600181016020830160005b86811015611ec75760038101905062ffffff818a015116603f8160121c168401518060081b905060ff603f83600c1c1686015116810190508060081b905060ff603f8360061c1686015116810190508060081b905060ff603f831686015116810190508060e01b90508084526004840193505050611e4e565b506003860660018114611ee15760028114611ef157611efc565b613d3d60f01b6002830352611efc565b603d60f81b60018303525b508484525050819450505050505b919050565b611f2982826040518060200160405280600081525061221b565b5050565b611f36826115f0565b611f75576040517f08c379a0000000000000000000000000000000000000000000000000000000008152600401611f6c90613643565b60405180910390fd5b80600660008481526020019081526020016000209080519060200190611f9c929190612457565b505050565b6001816000016000828254019250508190555050565b612051838383604051602401611fcf93929190613505565b6040516020818303038152906040527fe3849f79000000000000000000000000000000000000000000000000000000007bffffffffffffffffffffffffffffffffffffffffffffffffffffffff19166020820180517bffffffffffffffffffffffffffffffffffffffffffffffffffffffff8381831617835250505050612056565b505050565b60008151905060006a636f6e736f6c652e6c6f679050602083016000808483855afa5050505050565b505050565b60006120a58473ffffffffffffffffffffffffffffffffffffffff16612276565b1561220e578373ffffffffffffffffffffffffffffffffffffffff1663150b7a026120ce61165c565b8786866040518563ffffffff1660e01b81526004016120f09493929190613423565b602060405180830381600087803b15801561210a57600080fd5b505af192505050801561213b57506040513d601f19601f82011682018060405250810190612138919061279b565b60015b6121be573d806000811461216b576040519150601f19603f3d011682016040523d82523d6000602084013e612170565b606091505b506000815114156121b6576040517f08c379a00000000000000000000000000000000000000000000000000000000081526004016121ad90613543565b60405180910390fd5b805181602001fd5b63150b7a0260e01b7bffffffffffffffffffffffffffffffffffffffffffffffffffffffff1916817bffffffffffffffffffffffffffffffffffffffffffffffffffffffff191614915050612213565b600190505b949350505050565b6122258383612289565b6122326000848484612084565b612271576040517f08c379a000000000000000000000000000000000000000000000000000000000815260040161226890613543565b60405180910390fd5b505050565b600080823b905060008111915050919050565b600073ffffffffffffffffffffffffffffffffffffffff168273ffffffffffffffffffffffffffffffffffffffff1614156122f9576040517f08c379a00000000000000000000000000000000000000000000000000000000081526004016122f090613663565b60405180910390fd5b612302816115f0565b15612342576040517f08c379a000000000000000000000000000000000000000000000000000000000815260040161233990613563565b60405180910390fd5b61234e6000838361207f565b6001600360008473ffffffffffffffffffffffffffffffffffffffff1673ffffffffffffffffffffffffffffffffffffffff168152602001908152602001600020600082825461239e9190613817565b92505081905550816002600083815260200190815260200160002060006101000a81548173ffffffffffffffffffffffffffffffffffffffff021916908373ffffffffffffffffffffffffffffffffffffffff160217905550808273ffffffffffffffffffffffffffffffffffffffff16600073ffffffffffffffffffffffffffffffffffffffff167fddf252ad1be2c89b69c2b068fc378daa952ba7f163c4a11628f55a4df523b3ef60405160405180910390a45050565b828054612463906139e2565b90600052602060002090601f01602090048101928261248557600085556124cc565b82601f1061249e57805160ff19168380011785556124cc565b828001600101855582156124cc579182015b828111156124cb5782518255916020019190600101906124b0565b5b5090506124d991906124dd565b5090565b5b808211156124f65760008160009055506001016124de565b5090565b600061250d6125088461378f565b61375e565b90508281526020810184848401111561252557600080fd5b6125308482856139a0565b509392505050565b60008135905061254781613b5b565b92915050565b60008135905061255c81613b72565b92915050565b60008135905061257181613b89565b92915050565b60008151905061258681613b89565b92915050565b600082601f83011261259d57600080fd5b81356125ad8482602086016124fa565b91505092915050565b6000813590506125c581613ba0565b92915050565b6000602082840312156125dd57600080fd5b60006125eb84828501612538565b91505092915050565b6000806040838503121561260757600080fd5b600061261585828601612538565b925050602061262685828601612538565b9150509250929050565b60008060006060848603121561264557600080fd5b600061265386828701612538565b935050602061266486828701612538565b9250506040612675868287016125b6565b9150509250925092565b6000806000806080858703121561269557600080fd5b60006126a387828801612538565b94505060206126b487828801612538565b93505060406126c5878288016125b6565b925050606085013567ffffffffffffffff8111156126e257600080fd5b6126ee8782880161258c565b91505092959194509250565b6000806040838503121561270d57600080fd5b600061271b85828601612538565b925050602061272c8582860161254d565b9150509250929050565b6000806040838503121561274957600080fd5b600061275785828601612538565b9250506020612768858286016125b6565b9150509250929050565b60006020828403121561278457600080fd5b600061279284828501612562565b91505092915050565b6000602082840312156127ad57600080fd5b60006127bb84828501612577565b91505092915050565b6000602082840312156127d657600080fd5b60006127e4848285016125b6565b91505092915050565b6127f68161392c565b82525050565b6128058161393e565b82525050565b6000612816826137d4565b61282081856137ea565b93506128308185602086016139af565b61283981613b4a565b840191505092915050565b600061284f826137df565b61285981856137fb565b93506128698185602086016139af565b61287281613b4a565b840191505092915050565b6000612888826137df565b612892818561380c565b93506128a28185602086016139af565b80840191505092915050565b600081546128bb816139e2565b6128c5818661380c565b945060018216600081146128e057600181146128f157612924565b60ff19831686528186019350612924565b6128fa856137bf565b60005b8381101561291c578154818901526001820191506020810190506128fd565b838801955050505b50505092915050565b600061293a60258361380c565b91507f68747470733a2f2f6e6674707265766965772e30786465762e636f6465732f3f60008301527f636f64653d0000000000000000000000000000000000000000000000000000006020830152602582019050919050565b60006129a06032836137fb565b91507f4552433732313a207472616e7366657220746f206e6f6e20455243373231526560008301527f63656976657220696d706c656d656e74657200000000000000000000000000006020830152604082019050919050565b6000612a06601c836137fb565b91507f4552433732313a20746f6b656e20616c7265616479206d696e746564000000006000830152602082019050919050565b6000612a46600a8361380c565b91507f54484952445f574f5244000000000000000000000000000000000000000000006000830152600a82019050919050565b6000612a866024836137fb565b91507f4552433732313a207472616e7366657220746f20746865207a65726f2061646460008301527f72657373000000000000000000000000000000000000000000000000000000006020830152604082019050919050565b6000612aec6019836137fb565b91507f4552433732313a20617070726f766520746f2063616c6c6572000000000000006000830152602082019050919050565b6000612b2c60638361380c565b91507f222c20226465736372697074696f6e223a20224120686967686c79206163636c60008301527f61696d656420636f6c6c656374696f6e206f6620737175617265732e222c202260208301527f696d616765223a2022646174613a696d6167652f7376672b786d6c3b6261736560408301527f36342c00000000000000000000000000000000000000000000000000000000006060830152606382019050919050565b6000612bde600b8361380c565b91507f5345434f4e445f574f52440000000000000000000000000000000000000000006000830152600b82019050919050565b6000612c1e602c836137fb565b91507f4552433732313a206f70657261746f7220717565727920666f72206e6f6e657860008301527f697374656e7420746f6b656e00000000000000000000000000000000000000006020830152604082019050919050565b6000612c84600d8361380c565b91507f3c2f746578743e3c2f7376673e000000000000000000000000000000000000006000830152600d82019050919050565b6000612cc46038836137fb565b91507f4552433732313a20617070726f76652063616c6c6572206973206e6f74206f7760008301527f6e6572206e6f7220617070726f76656420666f7220616c6c00000000000000006020830152604082019050919050565b6000612d2a602a836137fb565b91507f4552433732313a2062616c616e636520717565727920666f7220746865207a6560008301527f726f2061646472657373000000000000000000000000000000000000000000006020830152604082019050919050565b6000612d906029836137fb565b91507f4552433732313a206f776e657220717565727920666f72206e6f6e657869737460008301527f656e7420746f6b656e00000000000000000000000000000000000000000000006020830152604082019050919050565b6000612df6602e836137fb565b91507f45524337323155524953746f726167653a2055524920736574206f66206e6f6e60008301527f6578697374656e7420746f6b656e0000000000000000000000000000000000006020830152604082019050919050565b6000612e5c60028361380c565b91507f227d0000000000000000000000000000000000000000000000000000000000006000830152600282019050919050565b6000612e9c6020836137fb565b91507f4552433732313a206d696e7420746f20746865207a65726f20616464726573736000830152602082019050919050565b6000612edc6031836137fb565b91507f45524337323155524953746f726167653a2055524920717565727920666f722060008301527f6e6f6e6578697374656e7420746f6b656e0000000000000000000000000000006020830152604082019050919050565b6000612f42602c836137fb565b91507f4552433732313a20617070726f76656420717565727920666f72206e6f6e657860008301527f697374656e7420746f6b656e00000000000000000000000000000000000000006020830152604082019050919050565b6000612fa86029836137fb565b91507f4552433732313a207472616e73666572206f6620746f6b656e2074686174206960008301527f73206e6f74206f776e00000000000000000000000000000000000000000000006020830152604082019050919050565b600061300e602f836137fb565b91507f4552433732314d657461646174613a2055524920717565727920666f72206e6f60008301527f6e6578697374656e7420746f6b656e00000000000000000000000000000000006020830152604082019050919050565b6000613074600a8361380c565b91507f7b226e616d65223a2022000000000000000000000000000000000000000000006000830152600a82019050919050565b60006130b46021836137fb565b91507f4552433732313a20617070726f76616c20746f2063757272656e74206f776e6560008301527f72000000000000000000000000000000000000000000000000000000000000006020830152604082019050919050565b600061311a600a8361380c565b91507f46495253545f574f5244000000000000000000000000000000000000000000006000830152600a82019050919050565b600061315a601d8361380c565b91507f646174613a6170706c69636174696f6e2f6a736f6e3b6261736536342c0000006000830152601d82019050919050565b600061319a6031836137fb565b91507f4552433732313a207472616e736665722063616c6c6572206973206e6f74206f60008301527f776e6572206e6f7220617070726f7665640000000000000000000000000000006020830152604082019050919050565b600061320060058361380c565b91507f434f4c4f520000000000000000000000000000000000000000000000000000006000830152600582019050919050565b61323c81613996565b82525050565b600061324e828461287d565b915081905092915050565b6000613265828561287d565b9150613271828461287d565b91508190509392505050565b6000613289828661287d565b9150613295828561287d565b91506132a1828461287d565b9150819050949350505050565b60006132ba82876128ae565b91506132c6828661287d565b91506132d282856128ae565b91506132de828461287d565b91506132e982612c77565b915081905095945050505050565b60006133028261292d565b915061330e828461287d565b915081905092915050565b600061332482612a39565b9150613330828461287d565b915081905092915050565b600061334682612bd1565b9150613352828461287d565b915081905092915050565b600061336882613067565b9150613374828561287d565b915061337f82612b1f565b915061338b828461287d565b915061339682612e4f565b91508190509392505050565b60006133ad8261310d565b91506133b9828461287d565b915081905092915050565b60006133cf8261314d565b91506133db828461287d565b915081905092915050565b60006133f1826131f3565b91506133fd828461287d565b915081905092915050565b600060208201905061341d60008301846127ed565b92915050565b600060808201905061343860008301876127ed565b61344560208301866127ed565b6134526040830185613233565b8181036060830152613464818461280b565b905095945050505050565b600060408201905061348460008301856127ed565b6134916020830184613233565b9392505050565b60006020820190506134ad60008301846127fc565b92915050565b600060208201905081810360008301526134cd8184612844565b905092915050565b600060408201905081810360008301526134ef8185612844565b90506134fe6020830184613233565b9392505050565b6000606082019050818103600083015261351f8186612844565b905061352e6020830185613233565b61353b60408301846127ed565b949350505050565b6000602082019050818103600083015261355c81612993565b9050919050565b6000602082019050818103600083015261357c816129f9565b9050919050565b6000602082019050818103600083015261359c81612a79565b9050919050565b600060208201905081810360008301526135bc81612adf565b9050919050565b600060208201905081810360008301526135dc81612c11565b9050919050565b600060208201905081810360008301526135fc81612cb7565b9050919050565b6000602082019050818103600083015261361c81612d1d565b9050919050565b6000602082019050818103600083015261363c81612d83565b9050919050565b6000602082019050818103600083015261365c81612de9565b9050919050565b6000602082019050818103600083015261367c81612e8f565b9050919050565b6000602082019050818103600083015261369c81612ecf565b9050919050565b600060208201905081810360008301526136bc81612f35565b9050919050565b600060208201905081810360008301526136dc81612f9b565b9050919050565b600060208201905081810360008301526136fc81613001565b9050919050565b6000602082019050818103600083015261371c816130a7565b9050919050565b6000602082019050818103600083015261373c8161318d565b9050919050565b60006020820190506137586000830184613233565b92915050565b6000604051905081810181811067ffffffffffffffff8211171561378557613784613b1b565b5b8060405250919050565b600067ffffffffffffffff8211156137aa576137a9613b1b565b5b601f19601f8301169050602081019050919050565b60008190508160005260206000209050919050565b600081519050919050565b600081519050919050565b600082825260208201905092915050565b600082825260208201905092915050565b600081905092915050565b600061382282613996565b915061382d83613996565b9250827fffffffffffffffffffffffffffffffffffffffffffffffffffffffffffffffff0382111561386257613861613a8e565b5b828201905092915050565b600061387882613996565b915061388383613996565b92508261389357613892613abd565b5b828204905092915050565b60006138a982613996565b91506138b483613996565b9250817fffffffffffffffffffffffffffffffffffffffffffffffffffffffffffffffff04831182151516156138ed576138ec613a8e565b5b828202905092915050565b600061390382613996565b915061390e83613996565b92508282101561392157613920613a8e565b5b828203905092915050565b600061393782613976565b9050919050565b60008115159050919050565b60007fffffffff0000000000000000000000000000000000000000000000000000000082169050919050565b600073ffffffffffffffffffffffffffffffffffffffff82169050919050565b6000819050919050565b82818337600083830152505050565b60005b838110156139cd5780820151818401526020810190506139b2565b838111156139dc576000848401525b50505050565b600060028204905060018216806139fa57607f821691505b60208210811415613a0e57613a0d613aec565b5b50919050565b6000613a1f82613996565b91507fffffffffffffffffffffffffffffffffffffffffffffffffffffffffffffffff821415613a5257613a51613a8e565b5b600182019050919050565b6000613a6882613996565b9150613a7383613996565b925082613a8357613a82613abd565b5b828206905092915050565b7f4e487b7100000000000000000000000000000000000000000000000000000000600052601160045260246000fd5b7f4e487b7100000000000000000000000000000000000000000000000000000000600052601260045260246000fd5b7f4e487b7100000000000000000000000000000000000000000000000000000000600052602260045260246000fd5b7f4e487b7100000000000000000000000000000000000000000000000000000000600052604160045260246000fd5b6000601f19601f8301169050919050565b613b648161392c565b8114613b6f57600080fd5b50565b613b7b8161393e565b8114613b8657600080fd5b50565b613b928161394a565b8114613b9d57600080fd5b50565b613ba981613996565b8114613bb457600080fd5b5056fe416e204e465420772f20494420257320686173206265656e206d696e74656420746f2025734142434445464748494a4b4c4d4e4f505152535455565758595a6162636465666768696a6b6c6d6e6f707172737475767778797a303132333435363738392b2fa2646970667358221220bca85fd1eabb165ff840f222d997ce77c2ded68b24b9b0a59b0a95c02db66b8464736f6c634300080000333c73766720786d6c6e733d27687474703a2f2f7777772e77332e6f72672f323030302f73766727207072657365727665417370656374526174696f3d27784d696e594d696e206d656574272076696577426f783d273020302033353020333530273e3c7374796c653e2e62617365207b2066696c6c3a2077686974653b20666f6e742d66616d696c793a2073657269663b20666f6e742d73697a653a20323470783b207d3c2f7374796c653e3c726563742077696474683d273130302527206865696768743d2731303025272066696c6c3d27272f3e3c7465787420783d273530252720793d273530252720636c6173733d27626173652720646f6d696e616e742d626173656c696e653d276d6964646c652720746578742d616e63686f723d276d6964646c65273e",
  "linkReferences": {},
  "deployedLinkReferences": {}
}